:04000000803114280F
:100008007E1480314E01961E0A280B2812288C1E59
:100018000E280F2812288131CD2180317E10090049
:100028008031162886308400813085002030860093
:10003800003087000C308131C12180317E104001B1
:10004800813157294001AF004301901A2C282D28EF
:100058007F2840012F08AC00AD01AC35AD0DAC35A3
:10006800AD0DD4302C07840001302D3D803885003B
:10007800000843018F0040012F08AC00AD01AC35EA
:10008800AD0DAC35AD0DD3302C07840001302D3DBE
:1000980080388500000843019000910140012F0835
:1000A800AC00AD01AC35AD0DAC35AD0DD5302C0780
:1000B800840001302D3D80388500000843018D0003
:1000C80040012F08AC00AD01AC35AD0DAC35AD0D20
:1000D800D6302C07840001302D3D8038850000087B
:1000E800AE00AE0DAE0DAE0D14082E06F7392E0675
:1000F800940043019016080040019C019B0198015F
:1001080099019A010F309600FF309200F730930062
:10011800F1309400FE309500FF307E01D900E730C1
:10012800CE00FF30C3000730E400FF30B800DA012A
:10013800E501C401B901CF01E601BA01C501D00149
:10014800DB01FF30BB00FF30C600FF30D100FF30BD
:10015800DC000730E700FF30BC00FF30C700FF308D
:10016800D200FF30DD000F30E80013307D01C500FC
:1001780015307E01A3001630A10004309B00023028
:10018800A2000B30A80014307D01C60008008131A0
:10019800B92180318131182180318031802080312E
:1001A80081319E21803181312D218031813142215F
:1001B80080318131B121803181316B2180318131B0
:1001C800032180310800F4007408F500F62875084A
:1001D8008600870101088131792180310130F300DF
:1001E8007308F5070130F1020030F23B710A031D74
:1001F8000129720A031D01290229EB280800493048
:100208004B019F009B309D009C014E018C1296165D
:10021800D7304001AC000130AD008131C7218131B8
:1002280080304B019E00080013307D01C50014305A
:10023800C60015307E01A3001630A10043018F01CE
:100248000330900001308D00400194114301901259
:1002580008007C01AF011B30B0001B30B100233017
:10026800B2002230B3000230B4000830B5002030AC
:10027800B6008030B7008030AE0008000A307C013C
:100288009B0023309C0022309D0011309E001130CD
:100298009F000230A0000830A1002030A200A30176
:1002A80082309A0008008031CB2081318B170B17E0
:1002B8000030803126208131A8304001AC00013067
:1002C800AD008131C721813168298031142801307E
:1002D800450190008F01910104308D008C014E0181
:1002E8009010803045018E000800F000700843012E
:1002F8008C004E010F1C812982297D290F10430192
:100308000C080800143414341434643400340034F1
:1003180000346434003400340034643476087704DC
:100328000319972998299D2977088A0076080A00D1
:1003380081310800603051018D008F019101063034
:1003480093009001920108000C30F1000030F20097
:1003580020308031E7208131080080304601960046
:1003680002309500C030940008004F0196019701B3
:10037800980199019A019B010800FE0012001E00D5
:10038800FE0BC229003440012D08F7002C08F600A6
:1003980008004E018C12813192218131080003340A
:0803A8000034013400340800A8
:020000040001F9
:08000000FF3FFF3FFF3FFF3F00
:0A000E00EC3FFF3F9F3FFF3FFF3F25
:00000001FF
